:0400000007EF00F016
:0A0008006E8209ED08F078EF0AF0AF
:10100000003738392F3435362A3132332D63303DAD
:101010002B000600FACF60F0FBCF61F0E9CF62F061
:10102000EACF63F0E1CF64F0E2CF65F0D9CF66F0AC
:10103000DACF67F0F3CF68F0F4CF69F0F6CF6AF05B
:10104000F7CF6BF0F8CF6CF0F5CF6DF0F2B8F2A2FD
:1010500002D07AEC0BF0F0B6F0A002D078EC0BF0F6
:10106000F0B8F0A202D076EC0BF0F2B6F2A00ED0FF
:1010700081A80CD01804D8A409D0000E186E81A83D
:1010800002D0010E01D0000E73EC0BF0F2B6F2A00C
:101090000ED081B80CD01850D8A409D0010E186E0B
:1010A00081A802D0010E01D0000E73EC0BF0F2B655
:1010B000F2A00ED081AA0CD01704D8A409D0000E3B
:1010C000176E81AA02D0010E01D0000E70EC0BF059
:1010D000F2B6F2A00ED081BA0CD01750D8A409D025
:1010E000010E176E81AA02D0010E01D0000E70EC25
:1010F0000BF0F2B6F2A00ED081AC0CD01604D8A43E
:1011000009D0000E166E81AC02D0010E01D0000E87
:101110006DEC0BF0F2B6F2A00ED081BC0CD01650E4
:10112000D8A409D0010E166E81AC02D0010E01D0F8
:10113000000E6DEC0BF0F2B6F2A00ED081AE0CD02A
:101140001504D8A409D0000E156E81AE02D0010E90
:1011500001D0000E6AEC0BF0F2B6F2A00ED081BE08
:101160000CD01550D8A409D0010E156E81AE02D056
:10117000010E01D0000E6AEC0BF09DBC9EAC02D0BB
:1011800034EC0BF06DC0F5FF6CC0F8FF6BC0F7FFDF
:101190006AC0F6FF69C0F4FF68C0F3FF67C0DAFFFA
:1011A00066C0D9FF65C0E2FF64C0E1FF63C0EAFF2B
:1011B00062C0E9FF61C0FBFF60C0FAFF6E921100E0
:1011C000000E00019E6F00019B5100019C11D8A4EC
:1011D00004D0000E00019E6F12009BC0D9FF9CC07E
:1011E000DAFFDECF36F0DDCF37F0C290000120EE1F
:1011F00002F09B51D9269C51DA22DF5000019D6FED
:1012000000019D479D479D47C05000019D19C70B98
:101210009D19C06E000120EE03F09B51D9269C5110
:10122000DA22DF5000019D6FC05000019D19F80BBC
:101230009D19C06E000120EE04F09B51D9269C51EF
:10124000DA22DF5000019D6F00019D479D47C2508B
:1012500000019D19C30B9D19C26E000120EE04F020
:101260009B51D9269C51DA22DF50B7EC09F0F28E5F
:10127000F28C9D8C9E9C000120EE05F09B51D9269E
:101280009C51DA220001DFA202D0C08E0AD00001F8
:1012900020EE05F09B51D9269C51DA220001DFA2F5
:1012A000C09E000120EE05F09B51D9269C51DA2208
:1012B0000001DFB003D0C18AC1880CD0000120EE4C
:1012C00005F09B51D9269C51DA220001DFA002D003
:1012D000C19AC198C280010E00019E6F1200000EDB
:1012E0000001A26F00019A5100019B11D8A402D005
:1012F000000E38D09AC0D9FF9BC0DAFF0001DF385A
:10130000070B00019C6F010E00019D6F00019C2BDB
:1013100003D00001D8909D3700019C2FFAD700011F
:101320009D51FF0A00019E6F9AC0D9FF9BC0DAFF52
:101330000001DF500F0B00019F6F00019F51020D54
:101340000B0EF324D96E000EF420DA6EDECFA0F07F
:10135000DDCFA1F0A0C0D9FFA1C0DAFF00019E51EE
:10136000DF16010E0001A26F0001A2511200000160
:101370009A6F1AD092801200928212009284120008
:1013800092861200928A12009680120096821200B3
:1013900096841200938412009386120093821200A6
:1013A000938812009380120000019A51000AD8B469
:1013B000E1D7010AD8B4E0D7030AD8B4DFD7010ACD
:1013C000D8B4DED7070AD8B4DDD7010AD8B4DCD741
:1013D000030AD8B4DBD7010AD8B4DAD70F0AD8B4D5
:1013E000D9D7010AD8B4D8D7030AD8B4D7D7010AB5
:1013F000D8B4D6D7070AD8A41200D4D7000E5F6E8F
:1014000058505910D8B404D05A505B10D8A403D007
:10141000000E5F6E120020EE05F05850D92659508C
:10142000DA22DFB21AD020EE05F05850D9265950F2
:10143000DA22DFB212D0C350C4CF5CF05D6A5CC068
:101440005DF05C6A5C26000E5D22060E5E6E5D3409
:101450005D325C325E2EFBD70AD0C350C4CF5CF045
:101460005D6A5CC05DF05C6A5C26000E5D225AC05D
:10147000D9FF5BC0DAFF5CC0DEFF5DC0DDFF010E9F
:101480005F6E1200000E0001A36F350E00019A6F0F
:10149000000E00019B6F6FEC09F00001A36F340E8A
:1014A00000019A6F000E00019B6F6FEC09F00001C4
:1014B000A36F330E00019A6F000E00019B6F6FEC5B
:1014C00009F00001A36F320E00019A6F000E0001B7
:1014D0009B6F6FEC09F00001A36F310E00019A6F52
:1014E000000E00019B6F6FEC09F00001A36F12006A
:1014F000A40EF66E160EF76E000EF86E00EE80F07B
:1015000010EE1AF00900F5CFEEFFE550E150FAE1D8
:101510000E0EF66E160EF76E000EF86E00EE01F06F
:1015200010EE35F00900F5CFEEFFE550E150FAE19D
:1015300000EE36F0220EEE6AE806FDE16E906E9245
:10154000000144EF0BF042EC0AF02B0E00019B6F00
:10155000000E00019C6FE0EC08F0250E00019B6F6F
:10156000000E00019C6FE0EC08F01F0E00019B6F65
:10157000000E00019C6FE0EC08F0190E00019B6F5B
:10158000000E00019C6FE0EC08F01200000E00015C
:10159000A36F0001A0510001A111D8A404D0000E36
:1015A0000001A36F12009E9CA0C09BF0A1C09CF004
:1015B000A2C09DF0E7EC0AF00001A313A0C09AF0CE
:1015C000A1C09BF022EC0BF00001A3131200000E4F
:1015D00000019F6F00019B5100019C11D8A402D013
:1015E000000E10D09DC09EF000019E479E47C25045
:1015F00000019E19C30B9E19C26E00019D51B7ECEC
:1016000009F0010E00019F6F00019F511200890F28
:101610008A0F8B0F8C0F8D0F920F930F940F950FD6
:10162000960F0101010100000505030300000505F7
:101630000203000005050103BE1605050003433340
:031640002313036E
:10164400000E00019C6F00019A5100019B11D8A467
:1016540002D0000E02D0C282010E00019C6F000174
:101664009C5112009E9C36503710D8B4120001D8F9
:1016740012000500FA6E3650FD6E3750FE6EFF6A9A
:10168400FA501200A3EC0AF02B0E0001A06F000E1A
:101694000001A16F000E0001A26FC6EC0AF0FFD793
:1016A4000200120022003200C200D200E200F20066
:1016B400800F810F820F830F840F2B0E586E000E44
:1016C400596E560E5A6E000E5B6EFEEC09F0120057
:1016D400586EF2901200586EF2901200586EF2900A
:1016E4001200586EF2901200F0921200F090120064
:0416F400F29212005C
:020000040020DA
:08000000FFFFFFFFFFFFFFFF00
:020000040030CA
:0E000000FF02091EFF8181FF0FC00FE00F40BD
:00000001FF
