:0400000027EF0BF0EB
:10100000003738392F3435362A3132332D63303DAD
:0F1010002B01000A006400E80310272569000087
:10102000000E5A6E54505510D8A402D0000E8DD028
:1010300054C046F055C047F055EC0AF05A6E020E07
:101040005424466E000E5520476E55EC0AF05A6E39
:10105000000E596E000E586E59BE06D059501BE155
:10106000040E585CD8B017D058C056F059C057F08D
:10107000D89056365736040E5626000E5722565034
:101080005424466E57505520476E55EC0AF05A6E60
:10109000584A592AE1D71A0E566EF80EE82EFED796
:1010A000562EFCD700D054C050F055C051F0380E29
:1010B000526EBFEC0AF05A6E070E566E7D0EE82E89
:1010C000FED7562EFCD700F054C050F055C051F05A
:1010D000380E526EBFEC0AF05A6E320EE82EFED772
:1010E00054C050F055C051F0010E526EBFEC0AF0E2
:1010F0005A6E54C050F055C051F0020E526EBFEC03
:101100000AF05A6E54C050F055C051F0060E526E9F
:10111000BFEC0AF05A6E54C050F055C051F00E0E9C
:10112000526EBFEC0AF05A6E540E506E000E516EA5
:10113000280E526EBFEC0AF05A6E540E506E000E1E
:10114000516E800E526EBFEC0AF05A6E5A50120069
:10115000000E456E3C503D10D8B41AD03CC0D9FFAB
:101160003DC0DAFFDF500F0B3F6E060E3F6010D020
:101170003CC0D9FF3DC0DAFFDF38070B3F6E090ED8
:101180003F6006D03CC0D9FF3DC0DAFFDFAE5AD089
:10119000000E29D03CC0D9FF3DC0DAFFDF38070B75
:1011A0003F6E010E406E3F2A02D0D89040363F2E4F
:1011B000FCD73CC0D9FF3DC0DAFFDF500F0B416EBA
:1011C0004150020D110EF324D96E000EF420DA6E98
:1011D000DECF42F0DDCF43F042C0D9FF43C0DAFF9B
:1011E0004050DF122DD0456E34D03CC0D9FF3DC0F9
:1011F000DAFFDF38070B3F6E010E406E3F2A02D048
:10120000D89040363F2EFCD74050FF0A416E3CC07C
:10121000D9FF3DC0DAFFDF500F0B426E4250020D86
:10122000110EF324D96E000EF420DA6EDECF43F0F7
:10123000DDCF44F043C0D9FF44C0DAFF4150DF1690
:10124000010ED1D73E50000AD8B4CFD7010AD8B486
:10125000A1D745501200000E446E3C503D10D8A45A
:101260005AD0000E29D03CC0D9FF3DC0DAFFDF388C
:10127000070B3E6E010E3F6E3E2A02D0D8903F36DD
:101280003E2EFCD73CC0D9FF3DC0DAFFDF500F0B2C
:10129000406E4050020D250EF324D96E000EF4204E
:1012A000DA6EDECF41F0DDCF42F041C0D9FF42C05F
:1012B000DAFF3F50DF122DD0446E3CD03CC0D9FF46
:1012C0003DC0DAFFDF38070B3E6E010E3F6E3E2A4F
:1012D00002D0D8903F363E2EFCD73F50FF0A406EDA
:1012E0003CC0D9FF3DC0DAFFDF500F0B416E4150CB
:1012F000020D250EF324D96E000EF420DA6EDECF37
:1013000042F0DDCF43F042C0D9FF43C0DAFF405086
:10131000DF16010ED1D73CC0D9FF3DC0DAFFDFAEEA
:1013200002D0010E01D0000E000AD8B4C7D7010ABE
:10133000D8B499D744501200000E666E5F5060100A
:10134000D8A403D0000E666E12005FC050F060C0DB
:1013500051F06550080DF350400F526EBFEC0AF08B
:10136000666E000E686E000E676E68BE06D068502E
:1013700016E1080E675CD8B012D05FC050F060C0B4
:1013800051F067506324D96E68506420DA6EDF50E4
:10139000526E8BEC0AF0666E674A682AE6D75FC029
:1013A00059F060C05AF065C05BF061C05CF062C08B
:1013B0005DF050EC0BF0666E1200CFEC0BF0000EFF
:1013C0006C6E000E6B6E6CBE06D06C50F8E1080EB1
:1013D0006B5CD8B0F4D7300E5F6E000E606E010EFD
:1013E000616E010E626E6BC069F06CC06AF0D890DD
:1013F00069366A36D89069366A36D89069366A3660
:10140000800E6924636E000E6A20646E000E656EA5
:101410009CEC09F0020E6A6E040E696EBA0EE82E9C
:10142000FED7692EFCD76A2EFAD700D06B4A6C2AF9
:10143000CAD7000E586E570629D054C050F055C078
:1014400051F05750800F526EBFEC0AF01DD054C0BF
:1014500050F055C051F05750C00F526EBFEC0AF01B
:1014600013D054C050F055C051F05750940F526EE5
:10147000BFEC0AF009D054C050F055C051F057509D
:10148000D40F526EBFEC0AF0586E0DD05650010AC0
:10149000D8B4D3D7030AD8B4DAD7010AD8B4E1D77D
:1014A000070AD8B4E8D758501200000E496E4650CB
:1014B0004710D8B414D046C0D9FF47C0DAFFDF5078
:1014C0000F0B486E060E48600AD046C0D9FF47C0D1
:1014D000DAFFDF38070B486E080E486402D0000EB2
:1014E00017D046C03CF047C03DF02BEC09F046C099
:1014F0003CF047C03DF020EE01F04650D926475061
:10150000DA22000EDFB0010E3E6EA8EC08F0010EEC
:10151000496E49501200000E536E50505110D8A41D
:1015200002D0000E29D050C03CF051C03DF0010E59
:101530003E6EA8EC08F0536E50C046F051C047F024
:1015400052380F0B486EF3EC0AF0536E50C046F061
:1015500051C047F08CEC0BF0536E50C046F051C0B8
:1015600047F052C048F0F3EC0AF0536E50C046F01A
:1015700051C047F08CEC0BF0536E53501200000E2C
:10158000536E50505110D8A402D0000E29D050C034
:101590003CF051C03DF0000E3E6EA8EC08F0536EDA
:1015A00050C046F051C047F052380F0B486EF3EC74
:1015B0000AF0536E50C046F051C047F08CEC0BF06F
:1015C000536E50C046F051C047F052C048F0F3ECA3
:1015D0000AF0536E50C046F051C047F08CEC0BF04F
:1015E000536E53501200000E4D6E000E4F6E000EE3
:1015F0004E6E4FBE06D04F5028E1040E4E5CD8B060
:1016000024D04EC049F04FC04AF0D89049364A36EF
:10161000040E4926000E4A22495046243C6E4A5088
:1016200047203D6E4EC04BF048C04CF04B2A02D0D4
:10163000D8904C324B2EFCD74C50010B3E6EA8EC90
:1016400008F04D6E4E4A4F2AD4D74D501200520E1C
:10165000F66E170EF76E000EF86E00EE80F010EECC
:1016600038F00900F5CFEEFFE550E150FAE1DC0E6D
:10167000F66E160EF76E000EF86E00EE01F010EE2C
:101680003BF00900F5CFEEFFE550E150FAE1726A58
:10169000716A706A6F6A6E6A6D6A0001DDEF09F047
:1016A000000E5E6E59505A10D8A402D0000E13D00E
:1016B00059C054F05AC055F05CC056F05DC057F0A8
:1016C00019EC0AF05E6E59C050F05AC051F05BC080
:1016D00052F08BEC0AF05E6E5E50120002001200B7
:1016E00022003200C200D200E200F200890F8A0F0D
:1016F0008B0F8C0F8D0F800F810F820F830F840F44
:10170000920F930F940F950F960F03020012002271
:07171000003200420052000C
:10171800000E486E020E46243C6E000E47203D6EB9
:10172800010E3E6EA8EC08F0486E00D000D000F024
:10173800020E46243C6E000E47203D6E000E3E6EA3
:10174800A8EC08F0486E485012000E0A1111111149
:10175800111F0E0A111111111F1F0E0A1111111F4D
:101768001F1F0E0A11111F1F1F1F0E0A111F1F1FF7
:101778001F1F0E0A1F1F1F1F1F1F0E0E1F1F1F1FB9
:101788001F1F000E5B6E300E546E000E556E10EC6F
:0C17980008F05B6E1200C5EC0BF01200B4
:020000040020DA
:08000000FFFFFFFFFFFFFFFF00
:020000040030CA
:0E000000FF02091EFF8181FF0FC00FE00F40BD
:00000001FF
