:04000000E7EF7DF0B9
:10FB9200320E336E000E346E4CEC7EF0310E336E4C
:10FBA200000E346E4CEC7EF01200010E3E6E3C50A4
:10FBB2003D10D8A403D0000E3E6E12003CC033F0BC
:10FBC2003DC034F091EC7FF03E6E1200FE0EF66EF8
:10FBD200FB0EF76E000EF86E00EE01F010EE32F042
:10FBE2000900F5CFEEFFE550E150FAE14D6A4C6AAB
:10FBF2004B6A000EF86E0001FDEF7EF0890F8A0F4E
:10FC02008B0F8C0F8D0F800F810F820F830F840F4C
:10FC1200920F930F940F950F960F726252423222F7
:10FC22000300010000010301010000001202000EA6
:10FC32003A6E33503410D8A403D0000E3A6E12003C
:10FC420033C0D9FF34C0DAFFDF38070B356E010E3F
:10FC5200366E352A02D0D8903636352EFCD733C0D0
:10FC6200D9FF34C0DAFFDF500F0B376E3750020D69
:10FC7200010EF324D96E000EF420DA6EDECF38F0D6
:10FC8200DDCF39F038C0D9FF39C0DAFF3650DF1284
:10FC9200010E3A6E1200000E3B6E33503410D8A49F
:10FCA20003D0000E3B6E120033C0D9FF34C0DAFF1E
:10FCB200DF38070B356E010E366E352A02D0D8902A
:10FCC2003636352EFCD73650FF0A376E33C0D9FF91
:10FCD20034C0DAFFDF500F0B386E3850020D150EAC
:10FCE200F324D96E000EF420DA6EDECF39F0DDCFC8
:10FCF2003AF039C0D9FF3AC0DAFF3750DF16010EA9
:10FD02003B6E1200000E3B6E33503410D8A403D069
:10FD1200000E3B6E120033C0D9FF34C0DAFFDF3869
:10FD2200070B356E010E366E352A02D0D890363664
:10FD3200352EFCD73650FF0A376E33C0D9FF34C098
:10FD4200DAFFDF500F0B386E3850020D0B0EF32422
:10FD5200D96E000EF420DA6EDECF39F0DDCF3AF044
:10FD620039C0D9FF3AC0DAFF3750DF16010E3B6EB9
:10FD72001200000E426E000E436E3D503E10D8B48B
:10FD820004D03F504010D8A403D0000E426E12009F
:10FD92003DC033F03EC034F0430E356E000E366E79
:10FDA20044EC7FF020EE05F03D50D9263E50DA2299
:10FDB200DE04D8A406D04304D8A40FD014D0DF6E3A
:10FDC20018D020EE05F03D50D9263E50DA22DF5001
:10FDD200D8A40FD04304D8A406D03FC0D9FF40C056
:10FDE200DAFF000EECD73FC0D9FF40C0DAFF010EA8
:10FDF200E6D7010E426E1200C9EC7DF02B0E3C6E6E
:10FE0200000E3D6ED6EC7DF0250E3C6E000E3D6E72
:10FE1200D6EC7DF0000E496E000E4A6E2B0E3D6E42
:10FE2200000E3E6E490E3F6E000E406EBAEC7EF042
:10FE3200250E3D6E000E3E6E4A0E3F6E000E406E67
:10FE4200BAEC7EF04A04D8A407D0320E336E000E0C
:10FE5200346E18EC7EF006D0320E336E000E346E25
:10FE620083EC7EF04904D8A407D0310E336E000E25
:10FE7200346E18EC7EF0D2D7310E336E000E346E33
:10FE820083EC7EF0CBD7000E3C6E33503410D8B4E6
:10FE920014D035503610D8B410D033C0D9FF34C086
:10FEA200DAFF060EDF6009D020EE01F03350D926CA
:10FEB2003450DA22080EDF6403D0000E3C6E1200CA
:10FEC20020EE01F03350D9263450DA22DF50376E5B
:10FED20033C0D9FF34C0DAFFDF50386E3850020D1C
:10FEE2000B0EF324D96E000EF420DA6EDECF39F059
:10FEF200DDCF3AF039C0D9FF3AC0DAFFDF503B6EAE
:10FF0200372A02D0D8903B32372EFCD73B50010B18
:10FF120035C0D9FF36C0DAFFDF6E010E3C6E12002B
:10FF2200000E3B6E33503410D8A45AD0000E29D0A4
:10FF320020EE01F03350D9263450DA22DF50356EEC
:10FF4200010E366E352A02D0D8903636352EFCD7C1
:10FF520033C0D9FF34C0DAFFDF50376E3750020D9D
:10FF6200150EF324D96E000EF420DA6EDECF38F0CF
:10FF7200DDCF39F038C0D9FF39C0DAFF3650DF1291
:10FF82002DD03B6E3AD020EE01F03350D9263450BA
:10FF9200DA22DF50356E010E366E352A02D0D89045
:10FFA2003636352EFCD73650FF0A376E33C0D9FFAE
:10FFB20034C0DAFFDF50386E3850020D150EF324CC
:10FFC200D96E000EF420DA6EDECF39F0DDCF3AF0D2
:10FFD20039C0D9FF3AC0DAFF3750DF16010ED1D748
:10FFE20020EE02F03350D9263450DA22DF50000AD4
:0EFFF200D8B4C9D7010AD8B49BD73B5012002F
:020000040020DA
:08000000FFFFFFFFFFFFFFFF00
:020000040030CA
:0E000000FF02091EFF8181FF0FC00FE00F40BD
:00000001FF
