:0400000007EF00F016
:0A0008006982ECED08F0C1EF0AF088
:10100000003738392F3435362A3132332D63303DAD
:101010002B00000E5F6E5D505E10D8A46CD0000EE9
:1010200031D05DC0D9FF5EC0DAFFDF38070B0001A9
:10103000806F010E0001816F0001802B03D0000141
:10104000D89081370001802FFAD75DC0D9FF5EC0EC
:10105000DAFFDF500F0B0001826F00018251020D99
:10106000250EF324D96E000EF420DA6EDECF83F065
:10107000DDCF84F083C0D9FF84C0DAFF0001815145
:10108000DF1237D05F6E46D05DC0D9FF5EC0DAFF99
:10109000DF38070B0001806F010E0001816F000136
:1010A000802B03D00001D89081370001802FFAD720
:1010B00000018151FF0A0001826F5DC0D9FF5EC04F
:1010C000DAFFDF500F0B0001836F00018351020D27
:1010D000250EF324D96E000EF420DA6EDECF84F0F4
:1010E000DDCF85F084C0D9FF85C0DAFF00018251D1
:1010F000DF16010EC7D75DC0D9FF5EC0DAFFDFAED5
:1011000002D0010E01D0000E000AD8B4BDD7010AEA
:10111000D8B487D75F501200000E606E5D505E102D
:10112000D8A447D044D020EE04F05D50D9265E50BC
:10113000DA22DF50D8A402D0F19C37D020EE04F0A0
:101140005D50D9265E50DA22DE04D8A42ED0F18C70
:101150002CD0606E3FD020EE04F05D50D9265E505A
:10116000DA22DF50D8A402D0F19A1FD020EE04F08A
:101170005D50D9265E50DA22DE04D8A416D0F18A5A
:1011800014D020EE04F05D50D9265E50DA22DF50F4
:10119000D8A402D0F19809D020EE04F05D50D926F1
:1011A0005E50DA22DE04D8B4F188010ED2D7000EE8
:1011B000D0D720EE05F05D50D9265E50DA22DF5000
:1011C000000AD8B4B0D7010AD8B4C5D7030AD8B436
:1011D000D8D7EDD7605012000600FACF4FF0FBCF02
:1011E00050F0E9CF51F0EACF52F0E1CF53F0E2CF27
:1011F00054F0D9CF55F0DACF56F0F3CF57F0F4CF03
:1012000058F0F6CF59F0F7CF5AF0F8CF5BF0F5CFA2
:101210005CF0F2B8F2A203D072EC0BF00BD0F0B697
:10122000F0A003D062EC0BF005D0F0B8F0A202D031
:1012300052EC0BF05CC0F5FF5BC0F8FF5AC0F7FF43
:1012400059C0F6FF58C0F4FF57C0F3FF56C0DAFF8D
:1012500055C0D9FF54C0E2FF53C0E1FF52C0EAFFBE
:1012600051C0E9FF50C0FBFF4FC0FAFF6992110067
:10127000000E5F6E5D505E10D8A402D0000E36D016
:101280005DC0D9FF5EC0DAFFDF38070B0001806F59
:10129000010E0001816F0001802B03D00001D89066
:1012A00081370001802FFAD700018151FF0A000128
:1012B000826F5DC0D9FF5EC0DAFFDF500F0B000107
:1012C000836F00018351020D250EF324D96E000EA9
:1012D000F420DA6EDECF84F0DDCF85F084C0D9FF54
:1012E00085C0DAFF00018251DF16010E5F6E5F508C
:1012F0001200000E0001886F000186510001871165
:10130000D8A404D0000E0001886F120086C05DF0E2
:1013100087C05EF054EC0AF00001886F86C05DF073
:1013200087C05EF079EC0AF00001881386C05DF09A
:1013300087C05EF08CEC08F00001881386C060F076
:1013400087C061F00FEC0BF00001881386C060F0DD
:1013500087C061F0B7EC09F00001881386C05DF02A
:1013600087C05EF029EC0AF0000188131200000E1D
:10137000626E60506110D8A425D021D060C0D9FF22
:1013800061C0DAFFDECF5DF0DDCF5EF042EC0BF046
:1013900017D060C0D9FF61C0DAFFDECF5DF0DDCFCE
:1013A0005EF032EC0BF00CD060C0D9FF61C0DAFF08
:1013B000DECF5DF0DDCF5EF022EC0BF001D0000E51
:1013C000626E11D020EE05F06050D9266150DA220D
:1013D000DF50000AD8B4D2D7010AD8B4DAD7030A4A
:1013E000D8B4E2D7ECD762501200000E4E6E4750D0
:1013F0004810D8A403D0000E4E6E120047C0D9FF8B
:1014000048C0DAFFDF38070B496E010E4A6E492AE1
:1014100002D0D8904A36492EFCD747C0D9FF48C0E1
:10142000DAFFDF500F0B4B6E4B50020D110EF32401
:10143000D96E000EF420DA6EDECF4CF0DDCF4DF029
:101440004CC0D9FF4DC0DAFF4A50DF1A010E4E6E74
:101450001200000E5F6E5D505E10D8A412D00FD047
:10146000F28EF28CF28809D05F6E1CD0F28EF28C74
:10147000F08603D0F28EF28CF088010EF5D7000EC4
:10148000F3D720EE05F05D50D9265E50DA22DF500A
:10149000000AD8B4E5D7010AD8B4E8D7030AD8B40B
:1014A000E9D7EDD75F501200000E5F6E5D505E1001
:1014B000D8A40CD009D0F29805D05F6E18D0F09661
:1014C00001D0F098010EF9D7000EF7D720EE05F005
:1014D0005D50D9265E50DA22DF50000AD8B4EBD72F
:1014E000010AD8B4ECD7030AD8B4EBD7EDD75F50D4
:1014F0001200000E5F6E5D505E10D8A40CD009D0B3
:10150000F29205D05F6E18D0F09001D0F092010EEB
:10151000F9D7000EF7D720EE05F05D50D9265E50C2
:10152000DA22DF50000AD8B4EBD7010AD8B4ECD7DE
:10153000030AD8B4EBD7EDD75F50120002001200B7
:1015400022003200C200D200E200F200890F8A0FAE
:101550008B0F8C0F8D0F800F810F820F830F840FE5
:10156000920F930F940F950F960F2017A100010271
:1015700001041791000101011217810001000123EC
:1015800013033C0EF66E150EF76E000EF86E00EEAD
:1015900001F010EE46F00900F5CFEEFFE550E15006
:1015A000FAE1686A676A666A656A646A636A69908A
:1015B00069920001DCEF0AF097EC0BF03D0E0001A0
:1015C000866F000E0001876F79EC09F0360E00017E
:1015D000866F000E0001876F79EC09F02F0E000175
:1015E000866F000E0001876F79EC09F0FFD7000EBF
:1015F000606E460E5D6E000E5E6E38EC09F0606E39
:10160000450E5D6E000E5E6E38EC09F0606E440EA5
:101610005D6E000E5E6E38EC09F0606E1200000E1A
:10162000626E60506110D8A402D0000E08D0020E85
:1016300060245D6E000E61205E6E09EC08F0626E43
:1016400062501200000E5F6E5D505E10D8A402D092
:10165000000E05D05DC063F05EC064F0010E5F6EE9
:101660005F501200000E5F6E5D505E10D8A402D075
:10167000000E05D05DC065F05EC066F0010E5F6EC5
:101680005F501200000E5F6E5D505E10D8A402D055
:10169000000E05D05DC067F05EC068F0010E5F6EA1
:1016A0005F501200F09263506410D8B4120001D859
:1016B00012000500FA6E6350FD6E6450FE6EFF6A04
:1016C000FA501200F09065506610D8B4120001D89C
:1016D00012000500FA6E6550FD6E6650FE6EFF6AE0
:1016E000FA501200F29267506810D8B4120001D874
:1016F00012000500FA6E6750FD6E6850FE6EFF6ABC
:10170000FA501200450E476E000E486EF5EC09F0D7
:101710001200460E476E000E486EF5EC09F01200FE
:10172000440E476E000E486EF5EC09F01200F7EC1F
:041730000AF01200A9
:020000040020DA
:08000000FFFFFFFFFFFFFFFF00
:020000040030CA
:0E000000FF02091EFF8181FF0FC00FE00F40BD
:00000001FF
