:040000007BEF7EF024
:10FCC6001F0E2C6E000E2D6E90EC7EF01200890F2A
:10FCD6008A0F8B0F8C0F8D0F800F810F820F830F72
:10FCE600840F920F930F940F950F960F0200120137
:10FCF600D40EF66EFC0EF76E000EF86E00EE01F0F6
:10FD060010EE22F00900F5CFEEFFE550E150FAE1E2
:10FD1600000EF86E0001E6EF7EF0000E2E6E2C50FF
:10FD26002D10D8A403D0000E2E6E1200020E2C2425
:10FD3600236E000E2D20246E0BEC7FF02CC023F0DA
:10FD46002DC024F00BEC7FF0010E2E6E1200000E7B
:10FD56002F6E2D502E10D8A403D0000E2F6E120039
:10FD66002DC023F02EC024F0000E256E7CEC7FF013
:10FD7600020E2D24236E000E2E20246E010E256EFB
:10FD86007CEC7FF0010E2F6E1200000E2F6E2D50B0
:10FD96002E10D8A403D0000E2F6E12002DC023F013
:10FDA6002EC024F0010E256E7CEC7FF0020E2D2471
:10FDB600236E000E2E20246E000E256E7CEC7FF046
:10FDC600010E2F6E120063EC7EF01F0E2D6E000EDC
:10FDD6002E6EC8EC7EF0060E316E130E306EAE0E31
:10FDE600E82EFED7302EFCD7312EFAD71F0E2D6EF9
:10FDF600000E2E6EAAEC7EF0060E316E130E306EDD
:10FE0600AE0EE82EFED7302EFCD7312EFAD7DDD730
:10FE1600000E2B6E23502410D8A45AD0000E29D0E1
:10FE260023C0D9FF24C0DAFFDF38070B256E010E89
:10FE3600266E252A02D0D8902636252EFCD723C03A
:10FE4600D9FF24C0DAFFDF500F0B276E2750020DB3
:10FE5600150EF324D96E000EF420DA6EDECF28F0EC
:10FE6600DDCF29F028C0D9FF29C0DAFF2650DF12DE
:10FE76002DD02B6E3CD023C0D9FF24C0DAFFDF384B
:10FE8600070B256E010E266E252A02D0D89026363F
:10FE9600252EFCD72650FF0A276E23C0D9FF24C083
:10FEA600DAFFDF500F0B286E2850020D150EF324D3
:10FEB600D96E000EF420DA6EDECF29F0DDCF2AF0FF
:10FEC60029C0D9FF2AC0DAFF2750DF16010ED1D785
:10FED60023C0D9FF24C0DAFFDFAE02D0010E01D065
:10FEE600000E000AD8B4C7D7010AD8B499D72B5048
:10FEF6001200000E2C6E23502410D8B41AD023C042
:10FF0600D9FF24C0DAFFDF500F0B266E060E2660DF
:10FF160010D023C0D9FF24C0DAFFDF38070B266EC6
:10FF2600090E266006D023C0D9FF24C0DAFFDFAE53
:10FF36005CD0000E2C6E120023C0D9FF24C0DAFF5D
:10FF4600DF38070B266E010E276E262A02D0D890C0
:10FF56002736262EFCD723C0D9FF24C0DAFFDF5070
:10FF66000F0B286E2850020D010EF324D96E000ED9
:10FF7600F420DA6EDECF29F0DDCF2AF029C0D9FFD2
:10FF86002AC0DAFF2750DF12010E2C6E120023C0A2
:10FF9600D9FF24C0DAFFDF38070B266E010E276E65
:10FFA600262A02D0D8902736262EFCD72750FF0ABD
:10FFB600286E23C0D9FF24C0DAFFDF500F0B296E4D
:10FFC6002950020D010EF324D96E000EF420DA6ECC
:10FFD600DECF2AF0DDCF2BF02AC0D9FF2BC0DAFF07
:10FFE6002850DF16010E2C6E12002550000AD8B4D8
:0AFFF600CED7010AD8A412009FD74D
:020000040020DA
:08000000FFFFFFFFFFFFFFFF00
:020000040030CA
:0E000000FF02091EFF8181FF0FC00FE00F40BD
:00000001FF
