:04000000F0EF7EF0AF
:10FDB900890F8A0F8B0F8C0F8D0F800F810F820F88
:10FDC900830F840F920F930F940F950F960F433A59
:10FDD900322A221A120A02B90EF66EFD0EF76E00C9
:10FDE9000EF86E00EE01F010EE27F00900F5CFEEE7
:10FDF900FFE550E150FAE1396A386A376A000EF8CE
:10FE09006E0001AEEF7FF02C6E000E2B6E050E2CEE
:10FE19006403D0000E2B6E12002C50020D150EF348
:10FE290024D96E000EF420DA6EDECF29F0DDCF2A58
:10FE3900F029C0D9FF2AC0DAFF28C0DFFF010E2B45
:10FE49006E12002B6E000E2A6E050E2B6403D00075
:10FE59000E2A6E12002B50020D010EF324D96E00EA
:10FE69000EF420DA6EDECF28F0DDCF29F028C0D9D4
:10FE7900FF29C0DAFFFF0EDF1A010E2A6E12002CCD
:10FE89006E000E2B6E050E2C6403D0000E2B6E1225
:10FE9900002C50020D010EF324D96E000EF420DA65
:10FEA9006EDECF29F0DDCF2AF029C0D9FF2AC0DACA
:10FEB900FF28C0DFFF010E2B6E12002D6E000E2CE5
:10FEC9006E060E2D6004D028502910D8A403D00046
:10FED9000E2C6E12002D50020D150EF324D96E0052
:10FEE9000EF420DA6EDECF2AF0DDCF2BF02AC0D94E
:10FEF900FF2BC0DAFF28C0E1FF29C0E2FFDFCFE70F
:10FF0900FF010E2C6E12002D6E000E2C6E060E2DAA
:10FF19006004D028502910D8A403D0000E2C6E12EA
:10FF2900002D50020D010EF324D96E000EF420DAD3
:10FF39006EDECF2AF0DDCF2BF02AC0D9FF2BC0DA35
:10FF4900FF28C0E1FF29C0E2FFDFCFE7FF010E2C48
:10FF59006E1200000E286E020E08EC7FF0550E2876
:10FF69006E020E44EC7FF0100E346E390E336E0EB5
:10FF79000EE82EFED7332EFCD7342EFAD7350E28AD
:10FF89006E000E296E020E62EC7FF035C028F00279
:10FF99000E44EC7FF0100E346E390E336E0E0EE8FF
:10FFA9002EFED7332EFCD7342EFAD7020E26EC7F3D
:10FFB900F0100E346E390E336E0E0EE82EFED73366
:10FFC9002EFCD7342EFAD7360E286E000E296E0273
:10FFD9000E88EC7FF036C028F0020E44EC7FF0105A
:10FFE9000E346E390E336E0E0EE82EFED7332EFC0C
:07FFF900D7342EFAD7AED772
:020000040020DA
:08000000FFFFFFFFFFFFFFFF00
:020000040030CA
:0E000000FF02091EFF8181FF0FC00FE00F40BD
:00000001FF
