:04000000A4EF7EF0FB
:0EFCA2001F0E326E000E336E6AEC7EF0120002
:10FCB100890F8A0F8B0F8C0F8D0F800F810F820F91
:10FCC100830F840F920F930F940F950F960F0200DD
:10FCD100000000000E346E32503310D8A403D0005F
:10FCE1000E346E120032C02EF033C02FF0DEEC7EE7
:10FCF100F0010E346E1200000E306E2E502F10D80F
:10FD0100A403D0000E306E12002EC024F02FC025A7
:10FD1100F0000E266E7DEC7FF0010E306E120000B9
:10FD21000E306E2E502F10D8A403D0000E306E125C
:10FD3100002EC024F02FC025F0010E266E7DEC7F31
:10FD4100F0010E306E1200B10EF66EFC0EF76E0071
:10FD51000EF86E00EE01F010EE23F00900F5CFEE83
:10FD6100FFE550E150FAE1000EF86E0001B9EF7EB7
:10FD7100F051EC7EF01F0E2E6E000E2F6E90EC7E79
:10FD8100F0060E366E130E356EAE0EE82EFED7352A
:10FD91002EFCD7362EFAD71F0E2E6E000E2F6E7C3C
:10FDA100EC7EF0060E366E130E356EAE0EE82EFEAC
:10FDB100D7352EFCD7362EFAD7DDD7000E316E2E71
:10FDC100502F10D8B410D02EC0D9FF2FC0DAFF06A3
:10FDD1000EDF6009D020EE01F02E50D9262F50DA27
:10FDE10022080EDF6403D0000E316E12002EC024F3
:10FDF100F02FC025F00EEC7FF02EC024F02FC0258F
:10FE0100F020EE03F02E50D9262F50DA22DF5026B3
:10FE11006E7DEC7FF0010E316E1200000E2C6E240F
:10FE2100502510D8A45AD0000E29D020EE01F0247C
:10FE310050D9262550DA22DF50266E010E276E2674
:10FE41002A02D0D8902736262EFCD724C0D9FF25E8
:10FE5100C0DAFFDF50286E2850020D150EF324D9A9
:10FE61006E000EF420DA6EDECF29F0DDCF2AF02904
:10FE7100C0D9FF2AC0DAFF2750DF122DD02C6E3AED
:10FE8100D020EE01F02450D9262550DA22DF502669
:10FE91006E010E276E262A02D0D8902736262EFC18
:10FEA100D72750FF0A286E24C0D9FF25C0DAFFDF0B
:10FEB10050296E2950020D150EF324D96E000EF44F
:10FEC10020DA6EDECF2AF0DDCF2BF02AC0D9FF2B4E
:10FED100C0DAFF2850DF16010ED1D720EE02F02440
:10FEE10050D9262550DA22DF50000AD8B4C9D701EB
:10FEF1000AD8B49BD72C501200000E2D6E24502529
:10FF010010D8B419D024C0D9FF25C0DAFF060EDFFE
:10FF11006012D020EE01F02450D9262550DA2209B2
:10FF21000EDF6009D020EE02F02450D9262550DAE8
:10FF310022DE04D8A45CD0000E2D6E120020EE014A
:10FF4100F02450D9262550DA22DF50276E010E28E1
:10FF51006E272A02D0D8902836272EFCD724C0D964
:10FF6100FF25C0DAFFDF50296E2950020D010EF383
:10FF710024D96E000EF420DA6EDECF2AF0DDCF2B0D
:10FF8100F02AC0D9FF2BC0DAFF2850DF12010E2D55
:10FF91006E120020EE01F02450D9262550DA22DF1E
:10FFA10050276E010E286E272A02D0D890283627B6
:10FFB1002EFCD72850FF0A296E24C0D9FF25C0DAAC
:10FFC100FFDF502A6E2A50020D010EF324D96E0074
:10FFD1000EF420DA6EDECF2BF0DDCF2CF02BC0D962
:10FFE100FF2CC0DAFF2950DF16010E2D6E120026FC
:0FFFF10050000AD8B4CED7010AD8A412009FD767
:020000040020DA
:08000000FFFFFFFFFFFFFFFF00
:020000040030CA
:0E000000FF02091EFF8181FF0FC00FE00F40BD
:00000001FF
