:040000006BEF7EF034
:10FC9400000E2C6E020E81EC7EF0000E2C6E030E14
:06FCA40081EC7EF012006D
:10FCAB00C0F9A4B0999282F88090890F8A0F8B0FBC
:10FCBB008C0F8D0F800F810F820F830F840F920F8C
:10FCCB00930F940F950F960F051310AB0EF66EFC5A
:10FCDB000EF76E000EF86E00EE01F010EE2BF00931
:10FCEB0000F5CFEEFFE550E150FAE13C6A000EF86B
:10FCFB006E000137EF7FF0306E000E2F6E050E3069
:10FD0B006403D0000E2F6E12003050020D1F0EF345
:10FD1B0024D96E000EF420DA6EDECF2DF0DDCF2E5F
:10FD2B00F02DC0D9FF2EC0DAFF2CC0DFFF010E2F44
:10FD3B006E1200386E000E376E050E386403D0005D
:10FD4B000E376E12003850020D0B0EF324D96E00D5
:10FD5B000EF420DA6EDECF35F0DDCF36F035C0D9BC
:10FD6B00FF36C0DAFF34C0DFFF010E376E12000022
:10FD7B000E316E2DAE06D02C6C2D1ED8B02D2A0157
:10FD8B000E316E2FAE04D02E6C2F1ED8B02F2A2E14
:10FD9B00502F10D8B418D0010E306E04D0D8902E3E
:10FDAB00362F36302A2FAEFAD72E502C5C2F502DF3
:10FDBB0058D8A004D02E502C5E2F502D5AD8902FEF
:10FDCB00322E32302EF1D73150D8B404D02C6C2DCA
:10FDDB001ED8B02D2A2CC02CF02DC02DF0120000F7
:10FDEB000E316E2FAE06D02E6C2F1ED8B02F2A01DF
:10FDFB000E316E2DAE06D02C6C2D1ED8B02D2A01D7
:10FE0B000E311A000E336E000E326E2E502F10D89C
:10FE1B00B41CD0010E306E04D0D8902E362F363055
:10FE2B002A2FAEFAD7D890323633362E502C5C2F81
:10FE3B00502D58D8A005D02E502C5E2F502D5A3255
:10FE4B0080D8902F322E32302EEDD73150D8B404CB
:10FE5B00D0326C331ED8B0332A32C02CF033C02DC5
:10FE6B00F012004AEC7EF0000E3B6E000E3A6E3B39
:10FE7B00BE08D03B5005E10A0E3A5CD8B0A5D001C4
:10FE8B00D0A3D0FE0E346E030E9FEC7EF02AC02C56
:10FE9B00F02D6A000E2F6E0A0E2E6EF5EC7EF02CF6
:10FEAB0050346E020E9FEC7EF0050E396E530EE849
:10FEBB002EFED7392EFCD7FD0E346E030E9FEC7E33
:10FECB00F02AC02CF02D6A000E2F6E0A0E2E6EBD7E
:10FEDB00EC7EF02C50346E020E9FEC7EF0050E394A
:10FEEB006E530EE82EFED7392EFCD7F70E346E0369
:10FEFB000E9FEC7EF02BC02CF02D6A000E2F6E0A9D
:10FF0B000E2E6EF5EC7EF02C50346E020E9FEC7EB6
:10FF1B00F0050E396E530EE82EFED7392EFCD7EFB7
:10FF2B000E346E030E9FEC7EF02BC02CF02D6A006E
:10FF3B000E2F6E0A0E2E6EBDEC7EF02C50346E0220
:10FF4B000E9FEC7EF0050E396E530EE82EFED73960
:10FF5B002EFCD7BF0E346E030E9FEC7EF03CC02CF4
:10FF6B00F02D6A000E2F6E0A0E2E6EF5EC7EF02C25
:10FF7B0050346E020E9FEC7EF0050E396E530EE878
:10FF8B002EFED7392EFCD77F0E346E030E9FEC7EE0
:10FF9B00F03CC02CF02D6A000E2F6E0A0E2E6EBD9B
:10FFAB00EC7EF02C50346E020E9FEC7EF0050E3979
:10FFBB006E530EE82EFED7392EFCD73A4A3B2A3B1E
:10FFCB00BE60D73B5001E157D73C2A3C0E3C18D8BA
:10FFDB00A403D0000E3C6E2B2A3C0E2B18D8A40386
:10FFEB00D0000E2B6E2A2A180E2A18D8A43CD70044
:05FFFB000E2A6E39D74B
:020000040020DA
:08000000FFFFFFFFFFFFFFFF00
:020000040030CA
:0E000000FF02091EFF8181FF0FC00FE00F40BD
:00000001FF
