:04000000EBEF7CF0B6
:10F9C800210E396E000E3A6E45EC7EF01200030EE1
:10F9D800F66EFA0EF76E000EF86E00EE01F010EEFD
:10F9E8002FF00900F5CFEEFFE550E150FAE1476A44
:0AF9F800000EF86E00010AEF7FF028
:10FA0300890F8A0F8B0F8C0F8D0F800F810F820F41
:10FA1300830F840F920F930F940F950F960F13106C
:10FA23000200120022003200030013000033000022
:10FA33000E356E31AE06D0306C311ED8B0312A018E
:10FA43000E356E33AE04D0326C331ED8B0332A3247
:10FA5300503310D8B418D0010E346E04D0D890327D
:10FA6300363336342A33AEFAD73250305C33503122
:10FA730058D8A004D03250305E3350315AD8903326
:10FA8300323232342EF1D73550D8B404D0306C3101
:10FA93001ED8B0312A30C030F031C031F01200002E
:10FAA3000E3D6E3A503B10D8B403D0020E3C6403B3
:10FAB300D0000E3D6E120020EE0CF03A50D9263BDA
:10FAC30050DA22DFB013D03C50020D080EF32600AB
:10FAD3000EF422F3503A24306EF4503B20316E0082
:10FAE3000E326E7CEC7FF0000E3D6E12003C500235
:10FAF3000D080EF326000EF422F3503A24306EF470
:10FB0300503B20316E010E326E7CEC7FF0000E3DD7
:10FB13006E1200000E3D6E3A503B10D8B403D00273
:10FB23000E3C6403D0000E3D6E120020EE0CF03A42
:10FB330050D9263B50DA22DFB013D03C50020D08D7
:10FB43000EF326000EF422F3503A24306EF4503BA9
:10FB530020316E010E326E7CEC7FF0000E3D6E1292
:10FB6300003C50020D080EF326000EF422F3503A27
:10FB730024306EF4503B20316E000E326E7CEC7FED
:10FB8300F0000E3D6E1200000E3D6E3A503B10D851
:10FB9300B403D0090E3C6403D0000E3D6E12003A4C
:10FBA300C030F03BC031F03C50010B326E7CEC7F37
:10FBB300F0020E3A24306E000E3B20316ED8903C9A
:10FBC30030010B326E7CEC7FF0040E3A24306E0071
:10FBD3000E3B20316E3C40E8423F0B010B326E7C02
:10FBE300EC7FF0060E3A24306E000E3B20316E3C63
:10FBF30038E8461F0B010B326E7CEC7FF0010E3DA3
:10FC03006E1200000E356E33AE06D0326C331ED842
:10FC1300B0332A010E356E31AE06D0306C311ED8AA
:10FC2300B0312A010E351A000E376E000E366E32D1
:10FC3300503310D8B41CD0010E346E04D0D8903297
:10FC4300363336342A33AEFAD7D89036363736328F
:10FC530050305C33503158D8A005D03250305E3329
:10FC630050315A3680D89033323232342EEDD73574
:10FC730050D8B404D0366C371ED8B0372A36C030CB
:10FC8300F037C031F01200000E3D6E39503A10D8F3
:10FC9300A403D0000E3D6E1200000E3F6E000E3E18
:10FCA3006E3FBE06D03F5016E1040E3E5CD8B01244
:10FCB300D03EC03BF03FC03CF0D8903B363C363B97
:10FCC300503924306E3C503A20316E99EC7EF03E30
:10FCD3004A3F2AE6D7000E416E000E406E41BE0633
:10FCE300D041501AE1020E405CD8B016D040C03B60
:10FCF300F041C03CF0D8903B363C36080E3B260022
:10FD03000E3C223B503924306E3C503A20316E99E0
:10FD1300EC7EF0404A412AE2D70D0E3924306E00C2
:10FD23000E3A20316E99EC7EF0010E3D6E1200000A
:10FD33000E386E30503110D8A45AD0000E29D0306E
:10FD4300C0D9FF31C0DAFFDF38070B326E010E3343
:10FD53006E322A02D0D8903336322EFCD730C0D937
:10FD6300FF31C0DAFFDF500F0B346E3450020D1534
:10FD73000EF324D96E000EF420DA6EDECF35F0DDFB
:10FD8300CF36F035C0D9FF36C0DAFF3350DF122D3E
:10FD9300D0386E3CD030C0D9FF31C0DAFFDF38072E
:10FDA3000B326E010E336E322A02D0D890333632C4
:10FDB3002EFCD73350FF0A346E30C0D9FF31C0DA7E
:10FDC300FFDF500F0B356E3550020D150EF324D99E
:10FDD3006E000EF420DA6EDECF36F0DDCF37F0366C
:10FDE300C0D9FF37C0DAFF3450DF16010ED1D73048
:10FDF300C0D9FF31C0DAFFDFAE02D0010E01D0005F
:10FE03000E000AD8B4C7D7010AD8B499D73850120C
:10FE130000E4EC7CF0000E466E000E456E46BE0616
:10FE2300D04650F8E1640E455CD8B0F4D7000E44D8
:10FE33006E000E436E44BE06D0445059E1210E437A
:10FE43005CD8B055D0210E3A6E000E3B6E000E3CCE
:10FE53006E8BEC7DF0210E3A6E000E3B6E010E3C74
:10FE63006E51EC7DF0210E3A6E000E3B6E45C030B4
:10FE7300F046C031F0000E336E0A0E326E03EC7E94
:10FE8300F030503C6EC5EC7DF00D0E426EFC0EE87A
:10FE93002EFED7422EFCD7210E3A6E000E3B6E018A
:10FEA3000E3C6E8BEC7DF0210E3A6E000E3B6E0025
:10FEB3000E3C6E51EC7DF0210E3A6E000E3B6E450A
:10FEC300C030F046C031F0000E336E0A0E326E19A8
:10FED300EC7DF030503C6EC5EC7DF00D0E426EFCB7
:10FEE3000EE82EFED7422EFCD7434A442AA3D74519
:10FEF3004A462A94D7000E396E30503110D8B41ABE
:10FF0300D030C0D9FF31C0DAFFDF500F0B336E069C
:10FF13000E336010D030C0D9FF31C0DAFFDF3807AD
:10FF23000B336E090E336006D030C0D9FF31C0DA0F
:10FF3300FFDFAE5CD0000E396E120030C0D9FF3146
:10FF4300C0DAFFDF38070B336E010E346E332A023B
:10FF5300D0D8903436332EFCD730C0D9FF31C0DA35
:10FF6300FFDF500F0B356E3550020D010EF324D910
:10FF73006E000EF420DA6EDECF36F0DDCF37F036CA
:10FF8300C0D9FF37C0DAFF3450DF12010E396E12C9
:10FF93000030C0D9FF31C0DAFFDF38070B336E0101
:10FFA3000E346E332A02D0D8903436332EFCD73435
:10FFB30050FF0A356E30C0D9FF31C0DAFFDF500F72
:10FFC3000B366E3650020D010EF324D96E000EF47B
:10FFD30020DA6EDECF37F0DDCF38F037C0D9FF3807
:10FFE300C0DAFF3550DF16010E396E1200325000B1
:0DFFF3000AD8B4CED7010AD8A412009FD7B7
:020000040020DA
:08000000FFFFFFFFFFFFFFFF00
:020000040030CA
:0E000000FF02091EFF8181FF0FC00FE00F40BD
:00000001FF
