:0400000007EF00F016
:0A0008006C8209ED08F051EF0CF0D6
:10100000003738392F3435362A3132332D63303DAD
:101010002B000600FACF5BF0FBCF5CF0E9CF5DF070
:10102000EACF5EF0E1CF5FF0E2CF60F0D9CF61F0C0
:10103000DACF62F0F3CF63F0F4CF64F0F6CF65F06F
:10104000F7CF66F0F8CF67F0F5CF68F0F2B8F2A20C
:1010500002D0F1EC0CF0F0B6F0A002D0E1EC0CF014
:10106000F0B8F0A202D0D1EC0CF0F2B6F2A00ED0A3
:1010700081A80CD03204D8A409D0000E326E81A809
:1010800002D0010E01D0000E24EC0DF0F2B6F2A059
:101090000ED081B80CD03250D8A409D0010E326ED7
:1010A00081A802D0010E01D0000E24EC0DF0F2B6A2
:1010B000F2A00ED081AA0CD03104D8A409D0000E21
:1010C000316E81AA02D0010E01D0000E21EC0DF08C
:1010D000F2B6F2A00ED081BA0CD03150D8A409D00B
:1010E000010E316E81AA02D0010E01D0000E21EC5A
:1010F0000DF0F2B6F2A00ED081AC0CD03004D8A422
:1011000009D0000E306E81AC02D0010E01D0000E6D
:101110001EEC0DF0F2B6F2A00ED081BC0CD0305017
:10112000D8A409D0010E306E81AC02D0010E01D0DE
:10113000000E1EEC0DF0F2B6F2A00ED081AE0CD077
:101140002F04D8A409D0000E2F6E81AE02D0010E5C
:1011500001D0000E1BEC0DF0F2B6F2A00ED081BE55
:101160000CD02F50D8A409D0010E2F6E81AE02D022
:10117000010E01D0000E1BEC0DF068C0F5FF67C03A
:10118000F8FF66C0F7FF65C0F6FF64C0F4FF63C0F8
:10119000F3FF62C0DAFF61C0D9FF60C0E2FF5FC049
:1011A000E1FF5EC0EAFF5DC0E9FF5CC0FBFF5BC022
:1011B000FAFF6C921100000E6B6E69506A10D8A491
:1011C0006CD0000E31D069C0D9FF6AC0DAFFDF38B9
:1011D000070B0001806F010E0001816F0001802B61
:1011E00003D00001D89081370001802FFAD769C061
:1011F000D9FF6AC0DAFFDF500F0B0001826F0001D8
:101200008251020D250EF324D96E000EF420DA6E01
:10121000DECF83F0DDCF84F083C0D9FF84C0DAFF56
:1012200000018151DF1237D06B6E46D069C0D9FF03
:101230006AC0DAFFDF38070B0001806F010E000182
:10124000816F0001802B03D00001D890813700010D
:10125000802FFAD700018151FF0A0001826F69C017
:10126000D9FF6AC0DAFFDF500F0B0001836F000166
:101270008351020D250EF324D96E000EF420DA6E90
:10128000DECF84F0DDCF85F084C0D9FF85C0DAFFE2
:1012900000018251DF16010EC7D769C0D9FF6AC0AD
:1012A000DAFFDFAE02D0010E01D0000E000AD8B482
:1012B000BDD7010AD8B487D76B501200000E0001C9
:1012C000806F69506A10D8A448D045D020EE04F051
:1012D0006950D9266A50DA22DF50D8A402D0F19C96
:1012E00038D020EE04F06950D9266A50DA22DE04A4
:1012F000D8A42FD0F18C2DD00001806F3FD020EEEC
:1013000004F06950D9266A50DA22DF50D8A402D0FE
:10131000F19A1FD020EE04F06950D9266A50DA22E3
:10132000DE04D8A416D0F18A14D020EE04F069505F
:10133000D9266A50DA22DF50D8A402D0F19809D019
:1013400020EE04F06950D9266A50DA22DE04D8B4BF
:10135000F188010ED1D7000ECFD720EE05F06950ED
:10136000D9266A50DA22DF50000AD8B4AFD7010A72
:10137000D8B4C5D7030AD8B4D8D7EDD70001805167
:101380001200000E0001826F0001805100018111E6
:10139000D8A426D021D080C0D9FF81C0DAFFDECF0B
:1013A00069F0DDCF6AF0C1EC0CF017D080C0D9FF36
:1013B00081C0DAFFDECF69F0DDCF6AF0B1EC0CF06E
:1013C0000CD080C0D9FF81C0DAFFDECF69F0DDCF5D
:1013D0006AF0A1EC0CF001D0000E0001826F12D077
:1013E000000120EE05F08051D9268151DA22DF502C
:1013F000000AD8B4D0D7010AD8B4D8D7030AD8B4D1
:10140000E0D7EAD7000182511200000E6B6E6950DE
:101410006A10D8A403D0000E6B6E120069C0D9FF09
:101420006AC0DAFFDF38070B0001806F010E000190
:10143000816F0001802B03D00001D890813700011B
:10144000802FFAD700018151FF0A0001826F69C025
:10145000D9FF6AC0DAFFDF500F0B0001836F000174
:101460008351020D1B0EF324D96E000EF420DA6EA8
:10147000DECF84F0DDCF85F084C0D9FF85C0DAFFF0
:1014800000018251DF16010E6B6E1200000E6B6EB2
:1014900069506A10D8A402D0000E36D069C0D9FFB6
:1014A0006AC0DAFFDF38070B0001806F010E000110
:1014B000816F0001802B03D00001D890813700019B
:1014C000802FFAD700018151FF0A0001826F69C0A5
:1014D000D9FF6AC0DAFFDF500F0B0001836F0001F4
:1014E0008351020D250EF324D96E000EF420DA6E1E
:1014F000DECF84F0DDCF85F084C0D9FF85C0DAFF70
:1015000000018251DF16010E6B6E6B501200000E4F
:1015100000018B6F0001895100018A11D8A404D009
:10152000000E00018B6F120089C069F08AC06AF05A
:10153000AAEC0BF000018B6F89C069F08AC06AF0D9
:10154000CFEC0BF000018B1389C069F08AC06AF000
:101550005EEC09F000018B1389C086F08AC087F029
:1015600087EC0CF000018B1389C080F08AC081F0F9
:10157000C1EC09F000018B1389C069F08AC06AF0E0
:101580002DEC0BF000018B131200000E6B6E6950F6
:101590006A10D8A403D0000E6B6E120069C0D9FF88
:1015A0006AC0DAFFDF38070B0001806F010E00010F
:1015B000816F0001802B03D00001D890813700019A
:1015C000802FFAD769C0D9FF6AC0DAFFDF500F0B4E
:1015D0000001826F00018251020D110EF324D96EB9
:1015E000000EF420DA6EDECF83F0DDCF84F083C00E
:1015F000D9FF84C0DAFF00018151DF12010E6B6E4A
:101600001200000E0001866F3E0E696E000E6A6EBB
:1016100046EC0AF00001866F3D0E696E000E6A6EA0
:1016200046EC0AF00001866F3C0E696E000E6A6E91
:1016300046EC0AF00001866F3B0E696E000E6A6E82
:1016400046EC0AF00001866F3A0E696E000E6A6E73
:1016500046EC0AF00001866F1200000E6B6E6950B6
:101660006A10D8A412D00FD0F28EF28CF28809D072
:101670006B6E1CD0F28EF28CF08603D0F28EF28C60
:10168000F088010EF5D7000EF3D720EE05F0695073
:10169000D9266A50DA22DF50000AD8B4E5D7010A09
:1016A000D8B4E8D7030AD8B4E9D7EDD76B50120005
:1016B0003E0E696E000E6A6EC5EC0AF0020E000165
:1016C000876F450E0001866FA90EE82EFED7862F84
:1016D000FCD7872FFAD700D03E0E696E000E6A6ED7
:1016E00005EC0AF0020E0001876F450E0001866FBF
:1016F000A90EE82EFED7862FFCD7872FFAD700D069
:1017000012003D0E696E000E6A6EC5EC0AF0020E04
:101710000001876F450E0001866FA90EE82EFED7E7
:10172000862FFCD7872FFAD700D03D0E696E000EAA
:101730006A6E05EC0AF0020E0001876F450E00018B
:10174000866FA90EE82EFED7862FFCD7872FFAD7F3
:1017500000D01200000E6B6E69506A10D8A40CD035
:1017600009D0F29805D06B6E18D0F09601D0F098A1
:10177000010EF9D7000EF7D720EE05F06950D926F3
:101780006A50DA22DF50000AD8B4EBD7010AD8B485
:10179000ECD7030AD8B4EBD7EDD76B501200000E8C
:1017A0006B6E69506A10D8A40CD009D0F29205D0A3
:1017B0006B6E18D0F09001D0F092010EF9D7000EA8
:1017C000F7D720EE05F06950D9266A50DA22DF50AB
:1017D000000AD8B4EBD7010AD8B4ECD7030AD8B4BE
:1017E000EBD7EDD76B50120002001200220032003E
:1017F000C200D200E200F200890F8A0F8B0F8C0F1B
:101800008D0F800F810F820F830F840F920F930F24
:10181000940F950F960F01010101021A810001003A
:10182000014333231303000E696E0001825100014E
:101830008311D8A403D0000E696E120000018151FB
:10184000030BAA6E80C0A9FFA69EA69CA68000F0EE
:1018500000F082C0D9FF83C0DAFFA8CFDFFF010EFE
:10186000696E1200000E596E5750030BAA6E56C0D7
:10187000A9FF58C0A8FFA69EA69CA684F29E000EB3
:10188000F2BE010E5A6E550EA76EAA0EA76EA68264
:10189000A6B2FED7A6945AB002D0F29E01D0F28E24
:1018A0001200E80EF66E170EF76E000EF86E00EEE0
:1018B00001F010EE3EF00900F5CFEEFFE550E150EB
:1018C000FAE100EE3FF0170EEE6AE806FDE16C90DB
:1018D0006C9200016CEF0CF010EC0DF0030E0001A7
:1018E000816F8069550E0001826F000E0001836FC9
:1018F00013EC0CF05504D8A403D058EC0BF0FAD735
:10190000020E5518D8A4F6D781EC0BF0F3D7000ED1
:101910000001886F0001865100018711D8A402D010
:10192000000E0AD0020E00018625696E000E00012D
:1019300087216A6EDBEC08F00001886F0001885196
:101940001200000E6B6E69506A10D8A402D0000E0F
:1019500005D069C04FF06AC050F0010E6B6E6B503D
:101960001200000E6B6E69506A10D8A402D0000EEF
:1019700005D069C051F06AC052F0010E6B6E6B5019
:101980001200000E6B6E69506A10D8A402D0000ECF
:1019900005D069C053F06AC054F0010E6B6E6B50F5
:1019A0001200F0924F505010D8B4120001D812001B
:1019B0000500FA6E4F50FD6E5050FE6EFF6AFA50F1
:1019C0001200F09051505210D8B4120001D81200F9
:1019D0000500FA6E5150FD6E5250FE6EFF6AFA50CD
:1019E0001200F29253505410D8B4120001D81200D1
:1019F0000500FA6E5350FD6E5450FE6EFF6AFA50A9
:101A00001200552A030E5518D8A402D0010E556EA7
:101A1000030E576E566855C058F032EC0CF01200A9
:101A200001EC0BF0330E0001896F000E00018A6F8C
:101A300087EC0AF01200566EF2901200566EF29089
:0E1A40001200566EF2901200566EF2901200D6
:020000040020DA
:08000000FFFFFFFFFFFFFFFF00
:020000040030CA
:0E000000FF02091EFF8181FF0FC00FE00F40BD
:00000001FF
