:040000004AEF0BF0C8
:10100000003738392F3435362A3132332D63303DAD
:101010002B00000E416E000E436E000E446E000E5B
:10102000426E000E406E3CC0D9FF3DC0DAFF000E9C
:10103000DF6E3A503B10D8B404D03C503D10D8A4D9
:1010400003D0000E416E1200000E436E030E436487
:1010500001D07AD04350020DF3503A24306EF45050
:101060003B20316E010E326EA7EC08F0416E000E8F
:10107000446E030E446401D055D04450020D080E56
:10108000F326000EF422F3503A24306EF4503B2045
:10109000316E420E326E000E336E9BEC09F0416EE3
:1010A0004204D8B414D03CD04450020D080EF326AC
:1010B000000EF422F3503A24306EF4503B20316E8F
:1010C000420E326E000E336E9BEC09F0416E42040C
:1010D000D8B4EAD70D0E3E6EFC0EE82EFED73E2E9B
:1010E000FCD74350040D010E3E6E100E3F6EF350C0
:1010F0003E26F4503F224450010DF3503E26F4505A
:101100003F223EC0F6FF3FC0F7FFF86A3CC0D9FF60
:101110003DC0DAFF0800F5CFDFFF010E406E02D0C0
:10112000442AA7D74350020DF3503A24306EF450AE
:101130003B20316E000E326EA7EC08F0416E400489
:10114000D8B402D0432A82D7010E416E1200000E9D
:10115000396E30503110D8B41AD030C0D9FF31C0F8
:10116000DAFFDF500F0B336E060E336010D030C045
:10117000D9FF31C0DAFFDF38070B336E090E336059
:1011800006D030C0D9FF31C0DAFFDFAE5AD0000E32
:1011900029D030C0D9FF31C0DAFFDF38070B336EFA
:1011A000010E346E332A02D0D8903436332EFCD759
:1011B00030C0D9FF31C0DAFFDF500F0B356E35502C
:1011C000020D010EF324D96E000EF420DA6EDECF8C
:1011D00036F0DDCF37F036C0D9FF37C0DAFF3450F4
:1011E000DF122DD0396E34D030C0D9FF31C0DAFFD4
:1011F000DF38070B336E010E346E332A02D0D890DD
:101200003436332EFCD73450FF0A356E30C0D9FF48
:1012100031C0DAFFDF500F0B366E3650020D010E73
:10122000F324D96E000EF420DA6EDECF37F0DDCF76
:1012300038F037C0D9FF38C0DAFF3550DF16010E5D
:10124000D1D73250000AD8B4CFD7010AD8B4A1D729
:1012500039501200000E386E30503110D8A45AD0D8
:10126000000E29D030C0D9FF31C0DAFFDF38070BBC
:10127000326E010E336E322A02D0D8903336322EBF
:10128000FCD730C0D9FF31C0DAFFDF500F0B346E0E
:101290003450020D150EF324D96E000EF420DA6ED0
:1012A000DECF35F0DDCF36F035C0D9FF36C0DAFFFE
:1012B0003350DF122DD0386E3CD030C0D9FF31C052
:1012C000DAFFDF38070B326E010E336E322A02D09E
:1012D000D8903336322EFCD73350FF0A346E30C0EC
:1012E000D9FF31C0DAFFDF500F0B356E3550020DDC
:1012F000150EF324D96E000EF420DA6EDECF36F030
:10130000DDCF37F036C0D9FF37C0DAFF3450DF16F3
:10131000010ED1D730C0D9FF31C0DAFFDFAE02D025
:10132000010E01D0000E000AD8B4C7D7010AD8B404
:1013300099D738501200000E396E30503110D8B4A1
:1013400018D032503310D8B414D030C0D9FF31C0C7
:10135000DAFFDF500F0B346E060E34600AD030C057
:10136000D9FF31C0DAFFDF38070B346E080E346462
:1013700002D0000E2ED030C0D9FF31C0DAFFDF38E6
:10138000070B346E30C0D9FF31C0DAFFDF500F0BCE
:10139000356E3550020D0B0EF324D96E000EF4207D
:1013A000DA6EDECF36F0DDCF37F036C0D9FF37C08A
:1013B000DAFFDF50386E342A02D0D8903832342E1B
:1013C000FCD73850010B32C0D9FF33C0DAFFDF6ED3
:1013D000010E396E39501200000E406E000E416E43
:1013E000000E426E3E503F10D8A403D0000E406E57
:1013F0002AD0000E416E030E416401D00DD0415041
:10140000020DF3503E243A6EF4503F203B6E93ECB5
:101410000AF0406E412AEFD7000E426E030E42647E
:1014200001D011D04250020D080EF326000EF42216
:10143000F3503E243A6EF4503F203B6E93EC0AF09A
:10144000406E422AEBD740501200000E386E3050EA
:101450003110D8A403D0000E386E120030C0D9FF6E
:1014600031C0DAFFDF38070B326E010E336E322ADD
:1014700002D0D8903336322EFCD73350FF0A346E68
:1014800030C0D9FF31C0DAFFDF500F0B356E355059
:10149000020D0B0EF324D96E000EF420DA6EDECFAF
:1014A00036F0DDCF37F036C0D9FF37C0DAFF345021
:1014B000DF16010E386E1200000E386E30503110FB
:1014C000D8A402D0000E2CD030C0D9FF31C0DAFF32
:1014D000DF38070B326E010E336E322A02D0D890FD
:1014E0003336322EFCD73350FF0A346E30C0D9FF6A
:1014F00031C0DAFFDF500F0B356E3550020D150E7F
:10150000F324D96E000EF420DA6EDECF36F0DDCF94
:1015100037F036C0D9FF37C0DAFF3450DF16010E7E
:10152000386E38501200000E3D6E3A503B10D8B461
:1015300014D03AC0D9FF3BC0DAFFDF500F0B3C6E2E
:10154000060E3C600AD03AC0D9FF3BC0DAFFDF3854
:10155000070B3C6E080E3C6402D0000E17D03AC058
:1015600030F03BC031F02AEC09F03AC030F03BC01B
:1015700031F020EE01F03A50D9263B50DA22000E2D
:10158000DFB0010E326EA7EC08F0010E3D6E3D504B
:1015900012006EEC0BF0000E476E1F0E3A6E000E3E
:1015A0003B6E470E3C6E000E3D6E09EC08F0630E7C
:1015B0004718D8A4F2D72F0E306E000E316EFEEC15
:1015C0000AF0060E466E130E456EAE0EE82EFED7DE
:1015D000452EFCD7462EFAD72F0E306E000E316EF8
:1015E00025EC0AF0060E466E130E456EAE0EE82E82
:1015F000FED7452EFCD7462EFAD7CFD7000E376E32
:1016000030503110D8A403D0000E376E120030C015
:10161000D9FF31C0DAFFDF38070B326E010E336EAF
:10162000322A02D0D8903336322EFCD730C0D9FFC0
:1016300031C0DAFFDF500F0B346E3450020D010E53
:10164000F324D96E000EF420DA6EDECF35F0DDCF54
:1016500036F035C0D9FF36C0DAFF3350DF12010E45
:10166000376E1200890F8A0F8B0F8C0F8D0F800F32
:10167000810F820F830F840F920F930F940F950F9A
:10168000960F0200120022003200C200D200E200D7
:03169000F2000362
:10169400640EF66E160EF76E000EF86E00EE01F094
:1016A40010EE2FF00900F5CFEEFFE550E150FAE11E
:1016B4000001C9EF0AF0000E436E1F0E3E6E000ECD
:1016C4003F6EECEC09F0436E2F0E306E000E316E5F
:0E16D4005CEC0AF0436E12005DEC0BF01200AD
:020000040020DA
:08000000FFFFFFFFFFFFFFFF00
:020000040030CA
:0E000000FF02091EFF8181FF0FC00FE00F40BD
:00000001FF
