:0400000007EF00F016
:0A0008006C8209ED08F025EF0DF001
:10100000003738392F3435362A3132332D63303DAD
:101010002B000600FACF48F0FBCF49F0E9CF4AF0A9
:10102000EACF4BF0E1CF4CF0E2CF4DF0D9CF4EF00C
:10103000DACF4FF0F3CF50F0F4CF51F0F6CF52F0BB
:10104000F7CF53F0F8CF54F0F5CF55F0F2B8F2A245
:1010500002D01AEC10F0F0B6F0A002D00AEC10F0BA
:10106000F0B8F0A202D0FAEC0FF0F2B6F2A00ED077
:1010700081A80CD02204D8A409D0000E226E81A829
:1010800002D0010E01D0000E43EC0EF0F2B6F2A039
:101090000ED081B80CD02250D8A409D0010E226EF7
:1010A00081A802D0010E01D0000E43EC0EF0F2B682
:1010B000F2A00ED081AA0CD02104D8A409D0000E31
:1010C000216E81AA02D0010E01D0000E1DEC0EF09F
:1010D000F2B6F2A00ED081BA0CD02150D8A409D01B
:1010E000010E216E81AA02D0010E01D0000E1DEC6E
:1010F0000EF0F2B6F2A00ED081AC0CD02004D8A431
:1011000009D0000E206E81AC02D0010E01D0000E7D
:10111000F7EC0DF0F2B6F2A00ED081BC0CD020504E
:10112000D8A409D0010E206E81AC02D0010E01D0EE
:10113000000EF7EC0DF0F2B6F2A00ED081AE0CD09E
:101140001F04D8A409D0000E1F6E81AE02D0010E7C
:1011500001D0000ED1EC0DF0F2B6F2A00ED081BE9F
:101160000CD01F50D8A409D0010E1F6E81AE02D042
:10117000010E01D0000ED1EC0DF055C0F5FF54C0AA
:10118000F8FF53C0F7FF52C0F6FF51C0F4FF50C044
:10119000F3FF4FC0DAFF4EC0D9FF4DC0E2FF4CC095
:1011A000E1FF4BC0EAFF4AC0E9FF49C0FBFF48C06E
:1011B000FAFF6C921100000E0001B46F0001AC51F7
:1011C0000001AD11D8A471D0000E33D0ACC0D9FF4E
:1011D000ADC0DAFF0001DF38070B0001AE6F010E72
:1011E0000001AF6F0001AE2B03D00001D890AF37E4
:1011F0000001AE2FFAD7ACC0D9FFADC0DAFF0001B5
:10120000DF500F0B0001B06F0001B051020D150E41
:10121000F324D96E000EF420DA6EDECFB1F0DDCF0C
:10122000B2F0B1C0D9FFB2C0DAFF0001AF51DF1296
:101230003AD00001B46F49D0ACC0D9FFADC0DAFFDD
:101240000001DF38070B0001AE6F010E0001AF6F28
:101250000001AE2B03D00001D890AF370001AE2FB4
:10126000FAD70001AF51FF0A0001B06FACC0D9FF3F
:10127000ADC0DAFF0001DF500F0B0001B16F0001BC
:10128000B151020D150EF324D96E000EF420DA6E62
:10129000DECFB2F0DDCFB3F0B2C0D9FFB3C0DAFF1A
:1012A0000001B051DF16010EC4D7ACC0D9FFADC0EC
:1012B000DAFF0001DFAE02D0010E01D0000E000AFD
:1012C000D8B4BAD7010AD8B481D70001B4511200FA
:1012D000000E0001B36F0001B1510001B211D8A49A
:1012E0006CD0000E0001B36F1200B1C0D9FFB2C0C4
:1012F000DAFFDECFACF0DDCFADF0000120EE02F082
:10130000B151D926B251DA22DECFAEF0DDCFAFF047
:10131000C6EC0EF0010E0001B36F1200B1C0D9FF90
:10132000B2C0DAFFDECFACF0DDCFADF0000120EED1
:1013300002F0B151D926B251DA22DECFAEF0DDCFC4
:10134000AFF0A7EC0EF0010E0001B36F1200B1C0B8
:10135000D9FFB2C0DAFFDECFACF0DDCFADF00001D7
:1013600020EE02F0B151D926B251DA22DECFAEF032
:10137000DDCFAFF088EC0EF0010E0001B36F12006C
:10138000B1C0D9FFB2C0DAFFDECFACF0DDCFADF037
:10139000000120EE02F0B151D926B251DA22DECF9F
:1013A000AEF0DDCFAFF069EC0EF0010E0001B36FCF
:1013B0001200000E0001B36F1200000120EE04F0D5
:1013C000B151D926B251DA220001DF38070B040AE5
:1013D000D8B48BD7010AD8B4A1D7030AD8B4B7D7E9
:1013E000010AD8B4CDD7E5D7000E0001AF6F0001D8
:1013F000AC510001AD11D8A44ED04BD0000120EE6D
:1014000004F0AC51D926AD51DA22DF50D8A402D075
:10141000F19C3DD0000120EE04F0AC51D926AD5135
:10142000DA22DE04D8A433D0F18C31D00001AF6FC2
:1014300044D0000120EE04F0AC51D926AD51DA229F
:10144000DF50D8A402D0F19A22D0000120EE04F09F
:10145000AC51D926AD51DA22DE04D8A418D0F18AD5
:1014600016D0000120EE04F0AC51D926AD51DA229D
:10147000DF50D8A402D0F1980AD0000120EE04F089
:10148000AC51D926AD51DA22DE04D8B4F188010E70
:10149000CDD7000ECBD7000120EE05F0AC51D926F8
:1014A000AD51DA22DF50000AD8B4A8D7010AD8B467
:1014B000C0D7030AD8B4D5D7ECD70001AF5112007A
:1014C000000E0001B46F0001AC510001AD11D8A4B1
:1014D00004D0000E0001B46F1200ACC0D9FFADC043
:1014E000DAFF0001DF38070B0001AE6F010E0001CB
:1014F000AF6F0001AE2B03D00001D890AF370001D1
:10150000AE2FFAD70001AF51FF0A0001B06FACC097
:10151000D9FFADC0DAFF0001DF500F0B0001B16F42
:101520000001B151020D0B0EF324D96E000EF42010
:10153000DA6EDECFB2F0DDCFB3F0B2C0D9FFB3C008
:10154000DAFF0001B051DF16010E0001B46F120086
:10155000000E0001B46F0001AC510001AD11D8A420
:1015600002D0000E38D0ACC0D9FFADC0DAFF000108
:10157000DF38070B0001AE6F010E0001AF6F0001F5
:10158000AE2B03D00001D890AF370001AE2FFAD7B1
:101590000001AF51FF0A0001B06FACC0D9FFADC070
:1015A000DAFF0001DF500F0B0001B16F0001B151F4
:1015B000020D150EF324D96E000EF420DA6EDECF84
:1015C000B2F0DDCFB3F0B2C0D9FFB3C0DAFF000193
:1015D000B051DF16010E0001B46F0001B4511200CA
:1015E000000E0001B16F0001AF510001B011D8A48D
:1015F00026D021D0AFC0D9FFB0C0DAFFDECFACF02B
:10160000DDCFADF07BEC0FF017D0AFC0D9FFB0C08D
:10161000DAFFDECFACF0DDCFADF066EC0FF00CD032
:10162000AFC0D9FFB0C0DAFFDECFACF0DDCFADF098
:1016300051EC0FF001D0000E0001B16F12D000018B
:1016400020EE05F0AF51D926B051DA22DF50000A62
:10165000D8B4D0D7010AD8B4D8D7030AD8B4E0D7C1
:10166000EAD70001B1511200000E0001B36F000172
:10167000AC510001AD11D8A404D0000E0001B36F2D
:101680001200ACC0D9FFADC0DAFF0001DF38070B94
:101690000001AE6F010E0001AF6F0001AE2B03D051
:1016A0000001D890AF370001AE2FFAD7ACC0D9FFF8
:1016B000ADC0DAFF0001DF500F0B0001B06F000179
:1016C000B051020D010EF324D96E000EF420DA6E33
:1016D000DECFB1F0DDCFB2F0B1C0D9FFB2C0DAFFDA
:1016E0000001AF51DF12010E0001B36F1200000EB6
:1016F0000001BA6F0001B8510001B911D8A404D09B
:10170000000E0001BA6F1200B8C0ACF0B9C0ADF065
:101710007BEC0DF00001BA6FB8C0ACF0B9C0ADF011
:10172000A6EC0DF00001BA13B8C0ACF0B9C0ADF032
:10173000F4EC09F00001BA13B8C0B5F0B9C0B6F0C6
:101740001FEC0FF00001BA13B8C0AFF0B9C0B0F091
:10175000F0EC0AF00001BA13B8C0ACF0B9C0ADF0BB
:10176000C5EC0CF00001BA13120027EC0CF0310E9E
:101770000001B86F000E0001B96F50EC0DF02A0E99
:101780000001B86F000E0001B96F50EC0DF0230E90
:101790000001B86F000E0001B96F50EC0DF0900E13
:1017A0000001B86F000E0001B96F50EC0DF0A50EEE
:1017B0000001B86F000E0001B96F77EC0BF09E0EC0
:1017C0000001B86F000E0001B96F77EC0BF0970EB7
:1017D0000001B86F000E0001B96F77EC0BF012003A
:1017E000000E456E3D503E10D8A403D0000E456E4D
:1017F00012003DC0D9FF3EC0DAFFDF38070B3F6E55
:10180000010E406E3F2A02D0D89040363F2EFCD7C2
:101810004050FF0A416E3DC0D9FF3EC0DAFFDF50A5
:101820000F0B426E4250020D0B0EF324D96E000EC8
:10183000F420DA6EDECF43F0DDCF44F043C0D9FFB1
:1018400044C0DAFF4150DF16010E456E1200000E53
:101850000001B56F3C0E0001AC6F000E0001AD6FD2
:10186000A8EC0AF00001B56F3B0E0001AC6F000E52
:101870000001AD6FA8EC0AF00001B56F3A0E00014F
:10188000AC6F000E0001AD6FA8EC0AF00001B56F5F
:10189000390E0001AC6F000E0001AD6FA8EC0AF02C
:1018A0000001B56F380E0001AC6F000E0001AD6F86
:1018B000A8EC0AF00001B56F1200000E446E3D5016
:1018C0003E10D8A403D0000E446E12003DC0D9FFD4
:1018D0003EC0DAFFDF38070B3F6E010E406E3F2A35
:1018E00002D0D89040363F2EFCD73DC0D9FF3EC035
:1018F000DAFFDF500F0B416E4150020D010EF32451
:10190000D96E000EF420DA6EDECF42F0DDCF43F068
:1019100042C0D9FF43C0DAFF4050DF12010E446ECF
:101920001200000E446E3D503E10D8A403D0000EAD
:10193000446E12003DC0D9FF3EC0DAFFDF38070B0E
:101940003F6E010E406E3F2A02D0D89040363F2EA7
:10195000FCD73DC0D9FF3EC0DAFFDF500F0B416E10
:101960004150020D010EF324D96E000EF420DA6E00
:10197000DECF42F0DDCF43F042C0D9FF43C0DAFFF3
:101980004050DF1A010E446E1200000E0001AE6FCF
:101990000001AC510001AD11D8A413D010D0F28ECB
:1019A000F28CF2880AD00001AE6F1DD0F28EF28C5C
:1019B000F08603D0F28EF28CF088010EF4D7000E80
:1019C000F2D7000120EE05F0AC51D926AD51DA2254
:1019D000DF50000AD8B4E3D7010AD8B4E7D7030A26
:1019E000D8B4E8D7ECD70001AE511200B5EC0BF03B
:1019F0003C0E0001AC6F000E0001AD6F34EC0BF03B
:101A0000020E0001BC6F450E0001BB6FA90EE82E4F
:101A1000FED7BB2FFCD7BC2FFAD700D03C0E00015D
:101A2000AC6F000E0001AD6F60EC0AF0020E000119
:101A3000BC6F450E0001BB6FA90EE82EFED7BB2F71
:101A4000FCD7BC2FFAD700D0D3D7760EF66E1E0E79
:101A5000F76E000EF86E00EE80F010EE2CF009002C
:101A6000F5CFEEFFE550E150FAE1CA0EF66E1D0E1D
:101A7000F76E000EF86E00EE01F010EE3CF009007B
:101A8000F5CFEEFFE550E150FAE100EE56F0160E0C
:101A9000EE6AE806FDE16C906C920001F6EF0CF046
:101AA000000E0001BA6F0001B8510001B911D8A4AD
:101AB00004D0000E0001BA6F1200F296F290B8C086
:101AC000B5F0B9C0B6F003EC0FF0B8C0B1F0B9C0D2
:101AD000B2F068EC09F0B8C0ACF0B9C0ADF0EAEC17
:101AE0000FF0B8C0ACF0B9C0ADF090EC0FF0010E43
:101AF0000001BA6F1200000E0001AE6F0001AC5180
:101B00000001AD11D8A40DD00AD0F29806D0000182
:101B1000AE6F19D0F09601D0F098010EF8D7000EF4
:101B2000F6D7000120EE05F0AC51D926AD51DA22EE
:101B3000DF50000AD8B4E9D7010AD8B4EBD7030ABA
:101B4000D8B4EAD7ECD70001AE511200000E000164
:101B5000AE6F0001AC510001AD11D8A40DD00AD078
:101B6000F29206D00001AE6F19D0F09001D0F09241
:101B7000010EF8D7000EF6D7000120EE05F0AC51AB
:101B8000D926AD51DA22DF50000AD8B4E9D7010ACC
:101B9000D8B4EBD7030AD8B4EAD7ECD70001AE51DA
:101BA0001200476EF2905E505F10D8B40ED047041A
:101BB000D8A40BD001D809D00500FA6E5E50FD6E96
:101BC0005F50FE6EFF6AFA50120056505710D8B49C
:101BD00012004750D8A4120001D812000500FA6E76
:101BE0005650FD6E5750FE6EFF6AFA501200476E57
:101BF000F29060506110D8B40ED04704D8A40BD036
:101C000001D809D00500FA6E6050FD6E6150FE6E7D
:101C1000FF6AFA50120058505910D8B412004750B9
:101C2000D8A4120001D812000500FA6E5850FD6EBB
:101C30005950FE6EFF6AFA501200476EF2906250E1
:101C40006310D8B40ED04704D8A40BD001D809D063
:101C50000500FA6E6250FD6E6350FE6EFF6AFA5028
:101C600012005A505B10D8B412004750D8A412008A
:101C700001D812000500FA6E5A50FD6E5B50FE6EE0
:101C8000FF6AFA501200476EF29064506510D8B4A3
:101C90000ED04704D8A40BD001D809D00500FA6EA5
:101CA0006450FD6E6550FE6EFF6AFA5012005C5083
:101CB0005D10D8B412004750D8A4120001D8120009
:101CC0000500FA6E5C50FD6E5D50FE6EFF6AFA50C4
:101CD0001200000E0001B06F0001AC510001AD1107
:101CE000D8B406D00001AE510001AF11D8A404D081
:101CF000000E0001B06F1200ACC05EF0ADC05FF02E
:101D0000AEC056F0AFC057F0010E0001B06F120028
:101D1000000E0001B06F0001AC510001AD11D8B44C
:101D200006D00001AE510001AF11D8A404D0000EBE
:101D30000001B06F1200ACC060F0ADC061F0AEC089
:101D400058F0AFC059F0010E0001B06F1200000E44
:101D50000001B06F0001AC510001AD11D8B406D044
:101D60000001AE510001AF11D8A404D0000E000153
:101D7000B06F1200ACC062F0ADC063F0AEC05AF0FC
:101D8000AFC05BF0010E0001B06F1200000E000149
:101D9000B06F0001AC510001AD11D8B406D0000104
:101DA000AE510001AF11D8A404D0000E0001B06FF5
:101DB0001200ACC064F0ADC065F0AEC05CF0AFC066
:101DC0005DF0010E0001B06F1200890F8A0F8B0FBA
:101DD0008C0F8D0F800F810F820F830F840F920F56
:101DE000930F940F950F960F010101018C20542041
:101DF000E100009A206220D10000441F7020C10041
:101E0000004333231303000E0001B76F0001B551E7
:101E10000001B611D8A404D0000E0001B76F120063
:101E2000040E0001B5250001AC6F000E0001B621C3
:101E30000001AD6FDBEC08F00001B76F1200000E7F
:101E40000001B76F0001B5510001B611D8A402D04E
:101E5000000E0CD0020E0001B5250001AC6F000E83
:101E60000001B6210001AD6FDBEC08F00001B76F97
:101E70000001B75112000200120022003200C2001D
:101E8000D200E200F200A8207E20F10000B01FA1E5
:101E900000010200681F91000101008C1F810001F8
:101EA0000001000E0001AE6F0001AC510001AD1148
:101EB000D8A402D0000E05D0ACC066F0ADC067F06B
:101EC000010E0001AE6F0001AE511200000E0001C4
:101ED000AE6F0001AC510001AD11D8A402D0000ECC
:101EE00005D0ACC068F0ADC069F0010E0001AE6F66
:101EF0000001AE511200000E0001AE6F0001AC51A6
:101F00000001AD11D8A402D0000E05D0ACC06AF01B
:101F1000ADC06BF0010E0001AE6F0001AE511200BA
:101F2000000E0001AE6F0001AC510001AD11D8A44C
:101F300004D0000E0001AE6F1200F286010E000107
:101F4000AE6F1200390E3D6E000E3E6E5DEC0CF071
:101F5000030E466E8A0E456E560EE82EFED7452EAF
:101F6000FCD7462EFAD712003B0E3D6E000E3E6E99
:101F700091EC0CF0020E466E450E456EAA0EE82E50
:101F8000FED7452EFCD7462EFAD712003C0E3D6EEA
:101F9000000E3E6E91EC0CF0020E466E450E456E44
:101FA000AA0EE82EFED7452EFCD7462EFAD71200F1
:101FB0003A0E3D6E000E3E6E91EC0CF0020E466E37
:101FC000450E456EAA0EE82EFED7452EFCD7462EAE
:101FD000FAD71200000E0001AE6F0001AC510001F3
:101FE000AD11D8A404D0000E0001AE6F1200F28E25
:101FF000F28C1200F09266506710D8B4120001D82B
:1020000012000500FA6E6650FD6E6750FE6EFF6AA4
:10201000FA501200F09068506910D8B4120001D83C
:1020200012000500FA6E6850FD6E6950FE6EFF6A80
:10203000FA501200F2926A506B10D8B4120001D814
:1020400012000500FA6E6A50FD6E6B50FE6EFF6A5C
:10205000FA501200380E3D6E000E3E6EF0EC0BF0A2
:102060001200390E3D6E000E3E6E5DEC0CF012005B
:10207000390E3D6E000E3E6EF0EC0BF01200380E85
:102080003D6E000E3E6E5DEC0CF01200380E3D6EA3
:10209000000E3E6E5DEC0CF01200390E3D6E000E2F
:1020A0003E6EF0EC0BF01200380E3D6E000E3E6EF0
:0620B000F0EC0BF0120041
:020000040020DA
:08000000FFFFFFFFFFFFFFFF00
:020000040030CA
:0E000000FF02091EFF8181FF0FC00FE00F40BD
:00000001FF
